
- [1 查看用户的日志](#1-查看用户的日志)
  - [1.1 查看用户的登陆日志](#11-查看用户的登陆日志)
  - [1.2 查看用户的操作日志](#12-查看用户的操作日志)
  - [1.3  查看linux系统的安全日志](#13--查看linux系统的安全日志)
- [2 网络交互信息监控](#2-网络交互信息监控)
  - [2.1 查看当前系统的网络连接情况](#21-查看当前系统的网络连接情况)
  - [2.2 tcpdump 查看tcp网络传输的数据包](#22-tcpdump-查看tcp网络传输的数据包)

## 1 查看用户的日志
### 1.1 查看用户的登陆日志
```shell
last -n 5

# last -n 5
wbxu     pts/0        10.196.20.237    Mon Sep 11 09:47   still logged in   
wbxu     pts/0        10.196.20.237    Fri Sep  8 16:04 - 17:00  (00:55)  

#查看当前登录用户现在使用的process id
ps -ef | grep pts/0

```

### 1.2 查看用户的操作日志
```shell
cd /var/log/audit
cat audit.log

type=USER_CMD msg=audit(1694398092.480:12104): pid=21221 uid=1021 auid=1021 ses=1592 subj=unconfined_u:unconfined_r:unconfined_t:s0-s0:c0.c1023 msg='cwd="/var/log" cmd="-bash" terminal=pts/0 res=success'
type=CRED_REFR msg=audit(1694398092.480:12105): pid=21221 uid=0 auid=1021 ses=1592 subj=unconfined_u:unconfined_r:unconfined_t:s0-s0:c0.c1023 msg='op=PAM:setcred grantors=pam_env,pam_unix acct="root" exe="/usr/bin/sudo" hostname=? addr=? terminal=/dev/pts/0 res=success'
type=USER_START msg=audit(1694398092.482:12106): pid=21221 uid=0 auid=1021 ses=1592 subj=unconfined_u:unconfined_r:unconfined_t:s0-s0:c0.c1023 msg='op=PAM:session_open grantors=pam_keyinit,pam_keyinit,pam_keyinit,pam_limits,pam_systemd,pam_unix,pam_ldap,pam_mkhomedir acct="root" exe="/usr/bin/sudo" hostname=? addr=? terminal=/dev/pts/0 res=success'

```

### 1.3  查看linux系统的安全日志

``` shell
cd /var/log
cat secure

[root@ywgl3 log]# cat secure
Sep 10 04:51:09 ywgl3 sshd[29090]: Connection closed by 10.196.22.23 port 42422 [preauth]

```


## 2 网络交互信息监控
>> 网络传输数据的基本协议为TCP和UDP
>> TCP协议是面向连接的协议，UDP协议是面向无连接的协议
>> TCP协议的数据传输是可靠的，UDP协议的数据传输是不可靠的

### 2.1 查看当前系统的网络连接情况

```shell
#查看当前系统的网络连接情况
netstat -antp  #tcp网络链接情况
netstat -anup  #udp网络链接情况

```

### 2.2 tcpdump 查看tcp网络传输的数据包

```shell
tcpdump -i any -c 1 -X -port 22

tcpdump: verbose output suppressed, use -v or -vv for full protocol decode
listening on any, link-type LINUX_SLL (Linux cooked), capture size 262144 bytes
14:09:22.344520 IP 10.14.22.63.ssh > 10.32.20.237.64310: Flags [P.], seq 3869889973:3869890169, ack 1698973491, win 292, options [nop,nop,TS val 1383287280 ecr 2197720770], length 196
	0x0000:  4548 00f8 3393 4000 4006 c571 0ac4 163f  EH..3.@.@..q...?
	0x0010:  0ac4 14ed 0016 fb36 e6a9 d5b5 6544 4733  .......6....eDG3
	0x0020:  8018 0124 419e 0000 0101 080a 5273 49f0  ...$A.......RsI.
	0x0030:  82fe 8ec2 49a4 f895 9c28 35cc b01b c051  ....I....(5....Q
	0x0040:  3d7d ad37 2151 b48b 5eca 6d40 c3c4 5410  =}.7!Q..^.m@..T.
	0x0050:  6f32 7df5 9e52 084b bd2b dc23 3d66 9e2a  o2}..R.K.+.#=f.*
	0x0060:  0994 8319 c986 0955 3b5f ff97 64b4 0b34  .......U;_..d..4
	0x0070:  8250 e501 b777 c150 e61e 9f7d 16f9 0510  .P...w.P...}....
	0x0080:  8313 2973 1b48 faf6 57c2 9077 27a7 3e4f  ..)s.H..W..w'.>O
	0x0090:  b8e6 c42f d7df 32c5 a0d6 9a32 7bfa c8ba  .../..2....2{...
	0x00a0:  5697 5357 0388 396b f86e eed3 2811 5c29  V.SW..9k.n..(.\)
	0x00b0:  035b 1a54 9744 2d55 1983 96d1 e56d f93b  .[.T.D-U.....m.;
	0x00c0:  3964 4b89 5163 ec25 04fe 79dc d527 4675  9dK.Qc.%..y..'Fu
	0x00d0:  5587 488d 51a3 6581 8181 ec19 e573 0d1e  U.H.Q.e......s..
	0x00e0:  232c 3533 3571 a91a c29d a72f 3ccd a19a  #,535q...../<...
	0x00f0:  5c5d 6125 9e98 f4ae 0000 0000 0000 0000  \]a%............
	0x0100:  0000 0000 0000 0000                      ........
1 packet captured
1 packet received by filter
0 packets dropped by kernel


### 2.3 Snort 监控网络数据包
```shell
#安装snort
yum install snort -y

#启动snort
snort -A console -i any -c /etc/snort/snort.conf

#查看snort的日志
tail -f /var/log/snort/alert

```



